Archive member included because of file (symbol)

C:\Users\alex1104\Documents\LPCXpresso_4.1.5_219\workspace\CMSISv1p30_LPC17xx\Debug\libCMSISv1p30_LPC17xx.a(system_LPC17xx.o)
                              ./adc.o (SystemCoreClock)
C:\Users\alex1104\Documents\LPCXpresso_4.1.5_219\workspace\FreeRTOS_Library\Debug\libFreeRTOS_Library.a(queue.o)
                              ./eint.o (xQueueCreate)
C:\Users\alex1104\Documents\LPCXpresso_4.1.5_219\workspace\FreeRTOS_Library\Debug\libFreeRTOS_Library.a(tasks.o)
                              ./main.o (xTaskGenericCreate)
C:\Users\alex1104\Documents\LPCXpresso_4.1.5_219\workspace\FreeRTOS_Library\Debug\libFreeRTOS_Library.a(heap_2.o)
                              C:\Users\alex1104\Documents\LPCXpresso_4.1.5_219\workspace\FreeRTOS_Library\Debug\libFreeRTOS_Library.a(queue.o) (pvPortMalloc)
C:\Users\alex1104\Documents\LPCXpresso_4.1.5_219\workspace\FreeRTOS_Library\Debug\libFreeRTOS_Library.a(port.o)
                              C:\Users\alex1104\Documents\LPCXpresso_4.1.5_219\workspace\FreeRTOS_Library\Debug\libFreeRTOS_Library.a(tasks.o) (pxPortInitialiseStack)
C:\Users\alex1104\Documents\LPCXpresso_4.1.5_219\workspace\FreeRTOS_Library\Debug\libFreeRTOS_Library.a(list.o)
                              C:\Users\alex1104\Documents\LPCXpresso_4.1.5_219\workspace\FreeRTOS_Library\Debug\libFreeRTOS_Library.a(queue.o) (vListInitialise)
c:/nxp/lpcxpresso_4.1.5_219/lpcxpresso/tools/bin/../lib/gcc/arm-none-eabi/4.5.1/../../../../arm-none-eabi/lib/thumb2\libcr_semihost.a(_cr__main.o)
                              ./cr_startup_lpc17.o (__main)
c:/nxp/lpcxpresso_4.1.5_219/lpcxpresso/tools/bin/../lib/gcc/arm-none-eabi/4.5.1/../../../../arm-none-eabi/lib/thumb2\libcr_c.a(initio.o)
                              c:/nxp/lpcxpresso_4.1.5_219/lpcxpresso/tools/bin/../lib/gcc/arm-none-eabi/4.5.1/../../../../arm-none-eabi/lib/thumb2\libcr_semihost.a(_cr__main.o) (_initio)
c:/nxp/lpcxpresso_4.1.5_219/lpcxpresso/tools/bin/../lib/gcc/arm-none-eabi/4.5.1/../../../../arm-none-eabi/lib/thumb2\libcr_c.a(memcmp.o)
                              C:\Users\alex1104\Documents\LPCXpresso_4.1.5_219\workspace\FreeRTOS_Library\Debug\libFreeRTOS_Library.a(tasks.o) (memcmp)
c:/nxp/lpcxpresso_4.1.5_219/lpcxpresso/tools/bin/../lib/gcc/arm-none-eabi/4.5.1/../../../../arm-none-eabi/lib/thumb2\libcr_c.a(setvbuf.o)
                              c:/nxp/lpcxpresso_4.1.5_219/lpcxpresso/tools/bin/../lib/gcc/arm-none-eabi/4.5.1/../../../../arm-none-eabi/lib/thumb2\libcr_c.a(initio.o) (setvbuf)
c:/nxp/lpcxpresso_4.1.5_219/lpcxpresso/tools/bin/../lib/gcc/arm-none-eabi/4.5.1/../../../../arm-none-eabi/lib/thumb2\libcr_c.a(stdio.o)
                              c:/nxp/lpcxpresso_4.1.5_219/lpcxpresso/tools/bin/../lib/gcc/arm-none-eabi/4.5.1/../../../../arm-none-eabi/lib/thumb2\libcr_c.a(initio.o) (__Ciob)
c:/nxp/lpcxpresso_4.1.5_219/lpcxpresso/tools/bin/../lib/gcc/arm-none-eabi/4.5.1/../../../../arm-none-eabi/lib/thumb2\libcr_c.a(strncpy.o)
                              C:\Users\alex1104\Documents\LPCXpresso_4.1.5_219\workspace\FreeRTOS_Library\Debug\libFreeRTOS_Library.a(tasks.o) (strncpy)
c:/nxp/lpcxpresso_4.1.5_219/lpcxpresso/tools/bin/../lib/gcc/arm-none-eabi/4.5.1/../../../../arm-none-eabi/lib/thumb2\libcr_c.a(memcpy.o)
                              C:\Users\alex1104\Documents\LPCXpresso_4.1.5_219\workspace\FreeRTOS_Library\Debug\libFreeRTOS_Library.a(queue.o) (memcpy)
c:/nxp/lpcxpresso_4.1.5_219/lpcxpresso/tools/bin/../lib/gcc/arm-none-eabi/4.5.1/../../../../arm-none-eabi/lib/thumb2\libcr_c.a(memset.o)
                              C:\Users\alex1104\Documents\LPCXpresso_4.1.5_219\workspace\FreeRTOS_Library\Debug\libFreeRTOS_Library.a(tasks.o) (memset)
c:/nxp/lpcxpresso_4.1.5_219/lpcxpresso/tools/bin/../lib/gcc/arm-none-eabi/4.5.1/../../../../arm-none-eabi/lib/thumb2\libcr_c.a(__fillbuf.o)
                              c:/nxp/lpcxpresso_4.1.5_219/lpcxpresso/tools/bin/../lib/gcc/arm-none-eabi/4.5.1/../../../../arm-none-eabi/lib/thumb2\libcr_c.a(stdio.o) (__filbuf)
c:/nxp/lpcxpresso_4.1.5_219/lpcxpresso/tools/bin/../lib/gcc/arm-none-eabi/4.5.1/../../../../arm-none-eabi/lib/thumb2\libcr_c.a(_deferredlazyseek.o)
                              c:/nxp/lpcxpresso_4.1.5_219/lpcxpresso/tools/bin/../lib/gcc/arm-none-eabi/4.5.1/../../../../arm-none-eabi/lib/thumb2\libcr_c.a(__fillbuf.o) (_deferredlazyseek)
c:/nxp/lpcxpresso_4.1.5_219/lpcxpresso/tools/bin/../lib/gcc/arm-none-eabi/4.5.1/../../../../arm-none-eabi/lib/thumb2\libcr_c.a(_fdopen.o)
                              c:/nxp/lpcxpresso_4.1.5_219/lpcxpresso/tools/bin/../lib/gcc/arm-none-eabi/4.5.1/../../../../arm-none-eabi/lib/thumb2\libcr_c.a(initio.o) (_fdopen)
c:/nxp/lpcxpresso_4.1.5_219/lpcxpresso/tools/bin/../lib/gcc/arm-none-eabi/4.5.1/../../../../arm-none-eabi/lib/thumb2\libcr_c.a(_fflush.o)
                              c:/nxp/lpcxpresso_4.1.5_219/lpcxpresso/tools/bin/../lib/gcc/arm-none-eabi/4.5.1/../../../../arm-none-eabi/lib/thumb2\libcr_c.a(__fillbuf.o) (_fflush)
c:/nxp/lpcxpresso_4.1.5_219/lpcxpresso/tools/bin/../lib/gcc/arm-none-eabi/4.5.1/../../../../arm-none-eabi/lib/thumb2\libcr_c.a(_writebuf.o)
                              c:/nxp/lpcxpresso_4.1.5_219/lpcxpresso/tools/bin/../lib/gcc/arm-none-eabi/4.5.1/../../../../arm-none-eabi/lib/thumb2\libcr_c.a(_deferredlazyseek.o) (_Cwritebuf)
c:/nxp/lpcxpresso_4.1.5_219/lpcxpresso/tools/bin/../lib/gcc/arm-none-eabi/4.5.1/../../../../arm-none-eabi/lib/thumb2\libcr_c.a(alloc.o)
                              c:/nxp/lpcxpresso_4.1.5_219/lpcxpresso/tools/bin/../lib/gcc/arm-none-eabi/4.5.1/../../../../arm-none-eabi/lib/thumb2\libcr_c.a(initio.o) (_Csys_alloc)
c:/nxp/lpcxpresso_4.1.5_219/lpcxpresso/tools/bin/../lib/gcc/arm-none-eabi/4.5.1/../../../../arm-none-eabi/lib/thumb2\libcr_c.a(fclose.o)
                              c:/nxp/lpcxpresso_4.1.5_219/lpcxpresso/tools/bin/../lib/gcc/arm-none-eabi/4.5.1/../../../../arm-none-eabi/lib/thumb2\libcr_c.a(initio.o) (fclose)
c:/nxp/lpcxpresso_4.1.5_219/lpcxpresso/tools/bin/../lib/gcc/arm-none-eabi/4.5.1/../../../../arm-none-eabi/lib/thumb2\libcr_c.a(fflush.o)
                              c:/nxp/lpcxpresso_4.1.5_219/lpcxpresso/tools/bin/../lib/gcc/arm-none-eabi/4.5.1/../../../../arm-none-eabi/lib/thumb2\libcr_c.a(fclose.o) (fflush)
c:/nxp/lpcxpresso_4.1.5_219/lpcxpresso/tools/bin/../lib/gcc/arm-none-eabi/4.5.1/../../../../arm-none-eabi/lib/thumb2\libcr_c.a(fseek.o)
                              c:/nxp/lpcxpresso_4.1.5_219/lpcxpresso/tools/bin/../lib/gcc/arm-none-eabi/4.5.1/../../../../arm-none-eabi/lib/thumb2\libcr_c.a(_deferredlazyseek.o) (fseek)
c:/nxp/lpcxpresso_4.1.5_219/lpcxpresso/tools/bin/../lib/gcc/arm-none-eabi/4.5.1/../../../../arm-none-eabi/lib/thumb2\libcr_c.a(ftell.o)
                              c:/nxp/lpcxpresso_4.1.5_219/lpcxpresso/tools/bin/../lib/gcc/arm-none-eabi/4.5.1/../../../../arm-none-eabi/lib/thumb2\libcr_c.a(fseek.o) (ftell)
c:/nxp/lpcxpresso_4.1.5_219/lpcxpresso/tools/bin/../lib/gcc/arm-none-eabi/4.5.1/../../../../arm-none-eabi/lib/thumb2\libcr_c.a(remove.o)
                              c:/nxp/lpcxpresso_4.1.5_219/lpcxpresso/tools/bin/../lib/gcc/arm-none-eabi/4.5.1/../../../../arm-none-eabi/lib/thumb2\libcr_c.a(fclose.o) (remove)
c:/nxp/lpcxpresso_4.1.5_219/lpcxpresso/tools/bin/../lib/gcc/arm-none-eabi/4.5.1/../../../../arm-none-eabi/lib/thumb2\libcr_c.a(strlen.o)
                              c:/nxp/lpcxpresso_4.1.5_219/lpcxpresso/tools/bin/../lib/gcc/arm-none-eabi/4.5.1/../../../../arm-none-eabi/lib/thumb2\libcr_c.a(remove.o) (strlen)
c:/nxp/lpcxpresso_4.1.5_219/lpcxpresso/tools/bin/../lib/gcc/arm-none-eabi/4.5.1/../../../../arm-none-eabi/lib/thumb2\libcr_c.a(__init_alloc.o)
                              c:/nxp/lpcxpresso_4.1.5_219/lpcxpresso/tools/bin/../lib/gcc/arm-none-eabi/4.5.1/../../../../arm-none-eabi/lib/thumb2\libcr_c.a(alloc.o) (__heaps)
c:/nxp/lpcxpresso_4.1.5_219/lpcxpresso/tools/bin/../lib/gcc/arm-none-eabi/4.5.1/../../../../arm-none-eabi/lib/thumb2\libcr_c.a(_do_fflush.o)
                              c:/nxp/lpcxpresso_4.1.5_219/lpcxpresso/tools/bin/../lib/gcc/arm-none-eabi/4.5.1/../../../../arm-none-eabi/lib/thumb2\libcr_c.a(fflush.o) (_do_fflush)
c:/nxp/lpcxpresso_4.1.5_219/lpcxpresso/tools/bin/../lib/gcc/arm-none-eabi/4.5.1/../../../../arm-none-eabi/lib/thumb2\libcr_c.a(errno.o)
                              c:/nxp/lpcxpresso_4.1.5_219/lpcxpresso/tools/bin/../lib/gcc/arm-none-eabi/4.5.1/../../../../arm-none-eabi/lib/thumb2\libcr_c.a(ftell.o) (errno)
c:/nxp/lpcxpresso_4.1.5_219/lpcxpresso/tools/bin/../lib/gcc/arm-none-eabi/4.5.1/thumb2\libcr_eabihelpers.a(float.o)
                              ./main.o (__aeabi_fmul)
c:/nxp/lpcxpresso_4.1.5_219/lpcxpresso/tools/bin/../lib/gcc/arm-none-eabi/4.5.1/thumb2\libcr_eabihelpers.a(memcpy.o)
                              c:/nxp/lpcxpresso_4.1.5_219/lpcxpresso/tools/bin/../lib/gcc/arm-none-eabi/4.5.1/../../../../arm-none-eabi/lib/thumb2\libcr_c.a(memcpy.o) (__aeabi_memcpy)
c:/nxp/lpcxpresso_4.1.5_219/lpcxpresso/tools/bin/../lib/gcc/arm-none-eabi/4.5.1/../../../../arm-none-eabi/lib/thumb2\libcr_semihost.a(__sys_appexit.o)
                              c:/nxp/lpcxpresso_4.1.5_219/lpcxpresso/tools/bin/../lib/gcc/arm-none-eabi/4.5.1/../../../../arm-none-eabi/lib/thumb2\libcr_c.a(alloc.o) (__sys_appexit)
c:/nxp/lpcxpresso_4.1.5_219/lpcxpresso/tools/bin/../lib/gcc/arm-none-eabi/4.5.1/../../../../arm-none-eabi/lib/thumb2\libcr_semihost.a(__sys_close.o)
                              c:/nxp/lpcxpresso_4.1.5_219/lpcxpresso/tools/bin/../lib/gcc/arm-none-eabi/4.5.1/../../../../arm-none-eabi/lib/thumb2\libcr_c.a(fclose.o) (__sys_close)
c:/nxp/lpcxpresso_4.1.5_219/lpcxpresso/tools/bin/../lib/gcc/arm-none-eabi/4.5.1/../../../../arm-none-eabi/lib/thumb2\libcr_semihost.a(__sys_flen.o)
                              c:/nxp/lpcxpresso_4.1.5_219/lpcxpresso/tools/bin/../lib/gcc/arm-none-eabi/4.5.1/../../../../arm-none-eabi/lib/thumb2\libcr_c.a(_writebuf.o) (__sys_flen)
c:/nxp/lpcxpresso_4.1.5_219/lpcxpresso/tools/bin/../lib/gcc/arm-none-eabi/4.5.1/../../../../arm-none-eabi/lib/thumb2\libcr_semihost.a(__sys_istty.o)
                              c:/nxp/lpcxpresso_4.1.5_219/lpcxpresso/tools/bin/../lib/gcc/arm-none-eabi/4.5.1/../../../../arm-none-eabi/lib/thumb2\libcr_c.a(_deferredlazyseek.o) (__sys_istty)
c:/nxp/lpcxpresso_4.1.5_219/lpcxpresso/tools/bin/../lib/gcc/arm-none-eabi/4.5.1/../../../../arm-none-eabi/lib/thumb2\libcr_semihost.a(__sys_read.o)
                              c:/nxp/lpcxpresso_4.1.5_219/lpcxpresso/tools/bin/../lib/gcc/arm-none-eabi/4.5.1/../../../../arm-none-eabi/lib/thumb2\libcr_c.a(__fillbuf.o) (__sys_read)
c:/nxp/lpcxpresso_4.1.5_219/lpcxpresso/tools/bin/../lib/gcc/arm-none-eabi/4.5.1/../../../../arm-none-eabi/lib/thumb2\libcr_semihost.a(__sys_readc.o)
                              c:/nxp/lpcxpresso_4.1.5_219/lpcxpresso/tools/bin/../lib/gcc/arm-none-eabi/4.5.1/../../../../arm-none-eabi/lib/thumb2\libcr_c.a(__fillbuf.o) (__sys_readc)
c:/nxp/lpcxpresso_4.1.5_219/lpcxpresso/tools/bin/../lib/gcc/arm-none-eabi/4.5.1/../../../../arm-none-eabi/lib/thumb2\libcr_semihost.a(__sys_remove.o)
                              c:/nxp/lpcxpresso_4.1.5_219/lpcxpresso/tools/bin/../lib/gcc/arm-none-eabi/4.5.1/../../../../arm-none-eabi/lib/thumb2\libcr_c.a(remove.o) (__sys_remove)
c:/nxp/lpcxpresso_4.1.5_219/lpcxpresso/tools/bin/../lib/gcc/arm-none-eabi/4.5.1/../../../../arm-none-eabi/lib/thumb2\libcr_semihost.a(__sys_rename.o)
                              c:/nxp/lpcxpresso_4.1.5_219/lpcxpresso/tools/bin/../lib/gcc/arm-none-eabi/4.5.1/../../../../arm-none-eabi/lib/thumb2\libcr_c.a(remove.o) (__sys_rename)
c:/nxp/lpcxpresso_4.1.5_219/lpcxpresso/tools/bin/../lib/gcc/arm-none-eabi/4.5.1/../../../../arm-none-eabi/lib/thumb2\libcr_semihost.a(__sys_seek.o)
                              c:/nxp/lpcxpresso_4.1.5_219/lpcxpresso/tools/bin/../lib/gcc/arm-none-eabi/4.5.1/../../../../arm-none-eabi/lib/thumb2\libcr_c.a(__fillbuf.o) (__sys_seek)
c:/nxp/lpcxpresso_4.1.5_219/lpcxpresso/tools/bin/../lib/gcc/arm-none-eabi/4.5.1/../../../../arm-none-eabi/lib/thumb2\libcr_semihost.a(__sys_tmpnam.o)
                              c:/nxp/lpcxpresso_4.1.5_219/lpcxpresso/tools/bin/../lib/gcc/arm-none-eabi/4.5.1/../../../../arm-none-eabi/lib/thumb2\libcr_c.a(fclose.o) (__sys_tmpnam)
c:/nxp/lpcxpresso_4.1.5_219/lpcxpresso/tools/bin/../lib/gcc/arm-none-eabi/4.5.1/../../../../arm-none-eabi/lib/thumb2\libcr_semihost.a(__sys_write.o)
                              c:/nxp/lpcxpresso_4.1.5_219/lpcxpresso/tools/bin/../lib/gcc/arm-none-eabi/4.5.1/../../../../arm-none-eabi/lib/thumb2\libcr_c.a(_writebuf.o) (__sys_write)
c:/nxp/lpcxpresso_4.1.5_219/lpcxpresso/tools/bin/../lib/gcc/arm-none-eabi/4.5.1/../../../../arm-none-eabi/lib/thumb2\libcr_semihost.a(_cr_sbrk.o)
                              c:/nxp/lpcxpresso_4.1.5_219/lpcxpresso/tools/bin/../lib/gcc/arm-none-eabi/4.5.1/../../../../arm-none-eabi/lib/thumb2\libcr_c.a(alloc.o) (_sbrk)
c:/nxp/lpcxpresso_4.1.5_219/lpcxpresso/tools/bin/../lib/gcc/arm-none-eabi/4.5.1/../../../../arm-none-eabi/lib/thumb2\libcr_semihost.a(_cr_check_heap.o)
                              c:/nxp/lpcxpresso_4.1.5_219/lpcxpresso/tools/bin/../lib/gcc/arm-none-eabi/4.5.1/../../../../arm-none-eabi/lib/thumb2\libcr_semihost.a(_cr_sbrk.o) (__check_heap_overflow)

Allocating common symbols
Common symbol       size              file

xTaskBITE           0x4               ./main.o
_extra              0x4               c:/nxp/lpcxpresso_4.1.5_219/lpcxpresso/tools/bin/../lib/gcc/arm-none-eabi/4.5.1/../../../../arm-none-eabi/lib/thumb2\libcr_c.a(initio.o)
pos                 0x4               ./circ_buffer.o
xTaskDisplayDistance
                    0x4               ./main.o
xBinarySemaphoreModeSwitch
                    0x4               ./eint.o
circ                0x50              ./circ_buffer.o
__heaps             0x4               c:/nxp/lpcxpresso_4.1.5_219/lpcxpresso/tools/bin/../lib/gcc/arm-none-eabi/4.5.1/../../../../arm-none-eabi/lib/thumb2\libcr_c.a(__init_alloc.o)
__end_of_heap       0x4               c:/nxp/lpcxpresso_4.1.5_219/lpcxpresso/tools/bin/../lib/gcc/arm-none-eabi/4.5.1/../../../../arm-none-eabi/lib/thumb2\libcr_c.a(__init_alloc.o)
ADC0Value           0x20              ./adc.o
__Ciob              0x140             c:/nxp/lpcxpresso_4.1.5_219/lpcxpresso/tools/bin/../lib/gcc/arm-none-eabi/4.5.1/../../../../arm-none-eabi/lib/thumb2\libcr_c.a(stdio.o)

Discarded input sections

 .text          0x00000000        0x0 ./adc.o
 .data          0x00000000        0x0 ./adc.o
 .text          0x00000000        0x0 ./circ_buffer.o
 .data          0x00000000        0x0 ./circ_buffer.o
 .bss           0x00000000        0x0 ./circ_buffer.o
 .text.circ_get
                0x00000000       0x58 ./circ_buffer.o
 .text          0x00000000        0x0 ./cr_startup_lpc17.o
 .data          0x00000000        0x0 ./cr_startup_lpc17.o
 .bss           0x00000000        0x0 ./cr_startup_lpc17.o
 .text.SVCall_Handler
                0x00000000        0x8 ./cr_startup_lpc17.o
 .text.PendSV_Handler
                0x00000000        0x8 ./cr_startup_lpc17.o
 .text.SysTick_Handler
                0x00000000        0x8 ./cr_startup_lpc17.o
 .text          0x00000000        0x0 ./eint.o
 .data          0x00000000        0x0 ./eint.o
Memory Configuration

Name             Origin             Length             Attributes
MFlash512        0x00000000         0x00080000         xr
RamLoc32         0x10000000         0x00008000         xrw
RamAHB32         0x2007c000         0x00008000         xrw
*default*        0x00000000         0xffffffff

Linker script and memory map

LOAD ./adc.o
LOAD ./circ_buffer.o
LOAD ./cr_startup_lpc17.o
LOAD ./eint.o
LOAD ./lpc17xx_clkpwr.o
LOAD ./lpc17xx_libcfg_default.o
LOAD ./lpc17xx_ssp.o
LOAD ./main.o
LOAD ./ssp.o
LOAD C:\Users\alex1104\Documents\LPCXpresso_4.1.5_219\workspace\CMSISv1p30_LPC17xx\Debug\libCMSISv1p30_LPC17xx.a
LOAD C:\Users\alex1104\Documents\LPCXpresso_4.1.5_219\workspace\FreeRTOS_Library\Debug\libFreeRTOS_Library.a
START GROUP
LOAD c:/nxp/lpcxpresso_4.1.5_219/lpcxpresso/tools/bin/../lib/gcc/arm-none-eabi/4.5.1/../../../../arm-none-eabi/lib/thumb2\libcr_semihost.a
LOAD c:/nxp/lpcxpresso_4.1.5_219/lpcxpresso/tools/bin/../lib/gcc/arm-none-eabi/4.5.1/../../../../arm-none-eabi/lib/thumb2\libcr_c.a
LOAD c:/nxp/lpcxpresso_4.1.5_219/lpcxpresso/tools/bin/../lib/gcc/arm-none-eabi/4.5.1/thumb2\libcr_eabihelpers.a
END GROUP
                0x00080000                __top_MFlash512 = 0x80000
                0x10008000                __top_RamLoc32 = 0x10008000
                0x20084000                __top_RamAHB32 = 0x20084000

.text           0x00000000     0x352c
 FILL mask 0xff
 *(.isr_vector)
 .isr_vector    0x00000000       0xcc ./cr_startup_lpc17.o
                0x00000000                g_pfnVectors
                0x000000cc                . = ALIGN (0x4)
                0x000000cc                __section_table_start = .
                0x000000cc                __data_section_table = .
                0x000000cc        0x4 LONG 0x352c LOADADDR (.data)
                0x000000d0        0x4 LONG 0x10000000 ADDR (.data)
                0x000000d4        0x4 LONG 0x24 SIZEOF (.data)
                0x000000d8        0x4 LONG 0x352c LOADADDR (.data_RAM2)
                0x000000dc        0x4 LONG 0x2007c000 ADDR (.data_RAM2)
                0x000000e0        0x4 LONG 0x0 SIZEOF (.data_RAM2)
                0x000000e4                __data_section_table_end = .
                0x000000e4                __bss_section_table = .
                0x000000e4        0x4 LONG 0x10000028 ADDR (.bss)
                0x000000e8        0x4 LONG 0x2af0 SIZEOF (.bss)
                0x000000ec        0x4 LONG 0x2007c000 ADDR (.bss_RAM2)
                0x000000f0        0x4 LONG 0x0 SIZEOF (.bss_RAM2)
                0x000000f4                __bss_section_table_end = .
                0x000000f4                __section_table_end = .
 *(.after_vectors*)
 *(.text*)
 .text.NVIC_EnableIRQ
                0x000000f4       0x38 ./adc.o
 .text.ADCInit  0x0000012c      0x134 ./adc.o
                0x0000012c                ADCInit
 .text.ADC0Read
                0x00000260       0x64 ./adc.o
                0x00000260                ADC0Read
 .text.ADC_IRQHandler
                0x000002c4      0x278 ./adc.o
                0x000002c4                ADC_IRQHandler
 .text.circ_update
                0x0000053c       0x58 ./circ_buffer.o
                0x0000053c                circ_update
 .text.circ_init
                0x00000594       0x48 ./circ_buffer.o
                0x00000594                circ_init
 .text.circ_average
                0x000005dc       0x58 ./circ_buffer.o
                0x000005dc                circ_average
 .text.ResetISR
                0x00000634       0x68 ./cr_startup_lpc17.o
                0x00000634                ResetISR
 .text.NMI_Handler
                0x0000069c        0x8 ./cr_startup_lpc17.o
                0x0000069c                NMI_Handler
 .text.HardFault_Handler
                0x000006a4        0x8 ./cr_startup_lpc17.o
                0x000006a4                HardFault_Handler
 .text.MemManage_Handler
                0x000006ac        0x8 ./cr_startup_lpc17.o
                0x000006ac                MemManage_Handler
 .text.BusFault_Handler
                0x000006b4        0x8 ./cr_startup_lpc17.o
                0x000006b4                BusFault_Handler
 .text.UsageFault_Handler
                0x000006bc        0x8 ./cr_startup_lpc17.o
                0x000006bc                UsageFault_Handler
 .text.DebugMon_Handler
                0x000006c4        0x8 ./cr_startup_lpc17.o
                0x000006c4                DebugMon_Handler
 .text.IntDefaultHandler
                0x000006cc        0x8 ./cr_startup_lpc17.o
                0x000006cc                TIMER2_IRQHandler
                0x000006cc                RIT_IRQHandler
                0x000006cc                I2C0_IRQHandler
                0x000006cc                USBActivity_IRQHandler
                0x000006cc                PWM1_IRQHandler
                0x000006cc                I2C1_IRQHandler
                0x000006cc                EINT2_IRQHandler
                0x000006cc                UART1_IRQHandler
                0x000006cc                CANActivity_IRQHandler
                0x000006cc                TIMER3_IRQHandler
                0x000006cc                UART0_IRQHandler
                0x000006cc                IntDefaultHandler
                0x000006cc                PLL0_IRQHandler
                0x000006cc                CAN_IRQHandler
                0x000006cc                PLL1_IRQHandler
                0x000006cc                SSP0_IRQHandler
                0x000006cc                I2S_IRQHandler
                0x000006cc                I2C2_IRQHandler
                0x000006cc                RTC_IRQHandler
                0x000006cc                TIMER0_IRQHandler
                0x000006cc                SPI_IRQHandler
                0x000006cc                EINT1_IRQHandler
                0x000006cc                TIMER1_IRQHandler
                0x000006cc                UART2_IRQHandler
                0x000006cc                SSP1_IRQHandler
                0x000006cc                USB_IRQHandler
                0x000006cc                BOD_IRQHandler
                0x000006cc                WDT_IRQHandler
                0x000006cc                QEI_IRQHandler
                0x000006cc                EINT0_IRQHandler
                0x000006cc                DMA_IRQHandler
                0x000006cc                UART3_IRQHandler
                0x000006cc                MCPWM_IRQHandler
                0x000006cc                ENET_IRQHandler
 .text.NVIC_EnableIRQ
                0x000006d4       0x38 ./eint.o
 .text.NVIC_DisableIRQ
                0x0000070c       0x3c ./eint.o
 .text.EINTInit
                0x00000748       0xa8 ./eint.o
                0x00000748                EINTInit
 .text.EINT3_IRQHandler
                0x000007f0       0x70 ./eint.o
                0x000007f0                EINT3_IRQHandler
 .text.CLKPWR_GetPCLKSEL
                0x00000860       0x54 ./lpc17xx_clkpwr.o
                0x00000860                CLKPWR_GetPCLKSEL
 .text.CLKPWR_GetPCLK
                0x000008b4       0x70 ./lpc17xx_clkpwr.o
                0x000008b4                CLKPWR_GetPCLK
 .text.CLKPWR_ConfigPPWR
                0x00000924       0x80 ./lpc17xx_clkpwr.o
                0x00000924                CLKPWR_ConfigPPWR
 .text.check_failed
                0x000009a4        0xc ./lpc17xx_libcfg_default.o
                0x000009a4                check_failed
 .text.setSSPclock
                0x000009b0       0xfc ./lpc17xx_ssp.o
 .text.SSP_Init
                0x00000aac       0xc0 ./lpc17xx_ssp.o
                0x00000aac                SSP_Init
 .text.SSP_ConfigStructInit
                0x00000b6c       0x48 ./lpc17xx_ssp.o
                0x00000b6c                SSP_ConfigStructInit
 .text.SSP_Cmd  0x00000bb4       0x80 ./lpc17xx_ssp.o
                0x00000bb4                SSP_Cmd
 .text.SSP_SendData
                0x00000c34       0x48 ./lpc17xx_ssp.o
                0x00000c34                SSP_SendData
 .text.main     0x00000c7c      0x16c ./main.o
                0x00000c7c                main
 .text.vTaskFunctionBITE
                0x00000de8      0x118 ./main.o
                0x00000de8                vTaskFunctionBITE
 .text.vTaskFunctionDisplayDistance
                0x00000f00      0x228 ./main.o
                0x00000f00                vTaskFunctionDisplayDistance
 .text.vTaskFunctionGreenLED
                0x00001128       0xc0 ./main.o
                0x00001128                vTaskFunctionGreenLED
 .text.vTaskFunctionRedLED
                0x000011e8       0xc0 ./main.o
                0x000011e8                vTaskFunctionRedLED
 .text.vTaskFunctionSwitchMode
                0x000012a8       0x78 ./main.o
                0x000012a8                vTaskFunctionSwitchMode
 .text.LEDInit  0x00001320       0x9c ./main.o
                0x00001320                LEDInit
 .text.vApplicationMallocFailedHook
                0x000013bc        0x8 ./main.o
                0x000013bc                vApplicationMallocFailedHook
 .text.vApplicationStackOverflowHook
                0x000013c4        0xc ./main.o
                0x000013c4                vApplicationStackOverflowHook
 .text.vApplicationIdleHook
                0x000013d0        0xc ./main.o
                0x000013d0                vApplicationIdleHook
 .text.vApplicationTickHook
                0x000013dc        0xc ./main.o
                0x000013dc                vApplicationTickHook
 .text.SSPInit  0x000013e8       0x88 ./ssp.o
                0x000013e8                SSPInit
 .text.SystemInit
                0x00001470      0x22c C:\Users\alex1104\Documents\LPCXpresso_4.1.5_219\workspace\CMSISv1p30_LPC17xx\Debug\libCMSISv1p30_LPC17xx.a(system_LPC17xx.o)
                0x00001470                SystemInit
 .text          0x0000169c      0x4dc C:\Users\alex1104\Documents\LPCXpresso_4.1.5_219\workspace\FreeRTOS_Library\Debug\libFreeRTOS_Library.a(queue.o)
                0x000017a4                xQueueCreate
                0x00001810                xQueueCreateCountingSemaphore
                0x00001828                xQueueGenericSend
                0x0000190c                xQueueCreateMutex
                0x00001958                xQueueGenericSendFromISR
                0x000019b4                xQueueGenericReceive
                0x00001ad0                xQueueReceiveFromISR
                0x00001b30                uxQueueMessagesWaiting
                0x00001b44                uxQueueMessagesWaitingFromISR
                0x00001b48                vQueueDelete
                0x00001b5c                xQueueIsQueueEmptyFromISR
                0x00001b68                xQueueIsQueueFullFromISR
 .text          0x00001b78      0xca8 C:\Users\alex1104\Documents\LPCXpresso_4.1.5_219\workspace\FreeRTOS_Library\Debug\libFreeRTOS_Library.a(tasks.o)
                0x00001b78                xTaskGenericCreate
                0x00001d78                vTaskDelete
                0x00001df4                uxTaskPriorityGet
                0x00001e14                vTaskPrioritySet
                0x00001ec8                xTaskIsTaskSuspended
                0x00001ef4                vTaskResume
                0x00001f70                xTaskResumeFromISR
                0x00001ff0                vTaskStartScheduler
                0x00002044                vTaskEndScheduler
                0x00002064                vTaskSuspendAll
                0x0000207c                xTaskGetTickCount
                0x00002098                xTaskGetTickCountFromISR
                0x000020a8                uxTaskGetNumberOfTasks
                0x000020b4                vTaskIncrementTick
                0x00002194                xTaskResumeAll
                0x0000230c                vTaskDelay
                0x00002364                vTaskDelayUntil
                0x00002400                vTaskSwitchContext
                0x0000250c                vTaskSuspend
                0x00002598                vTaskPlaceOnEventList
                0x00002604                xTaskRemoveFromEventList
                0x0000268c                vTaskSetTimeOutState
                0x000026a4                xTaskCheckForTimeOut
                0x00002720                vTaskMissedYield
                0x00002734                xTaskGetCurrentTaskHandle
                0x00002740                vTaskPriorityInherit
                0x000027cc                vTaskPriorityDisinherit
 .text          0x00002820      0x13c C:\Users\alex1104\Documents\LPCXpresso_4.1.5_219\workspace\FreeRTOS_Library\Debug\libFreeRTOS_Library.a(heap_2.o)
                0x00002820                pvPortMalloc
                0x0000290c                vPortFree
                0x0000294c                xPortGetFreeHeapSize
                0x00002958                vPortInitialiseBlocks
 .text          0x0000295c      0x160 C:\Users\alex1104\Documents\LPCXpresso_4.1.5_219\workspace\FreeRTOS_Library\Debug\libFreeRTOS_Library.a(port.o)
                0x0000295c                pxPortInitialiseStack
                0x00002988                vPortSVCHandler
                0x000029a8                vPortStartFirstTask
                0x000029b8                xPortStartScheduler
                0x00002a08                vPortEndScheduler
                0x00002a0c                vPortYieldFromISR
                0x00002a1c                vPortEnterCritical
                0x00002a38                vPortExitCritical
                0x00002a54                xPortPendSVHandler
                0x00002a90                xPortSysTickHandler
 .text          0x00002abc       0xa4 C:\Users\alex1104\Documents\LPCXpresso_4.1.5_219\workspace\FreeRTOS_Library\Debug\libFreeRTOS_Library.a(list.o)
                0x00002abc                vListInitialise
                0x00002ad4                vListInitialiseItem
                0x00002adc                vListInsertEnd
                0x00002afc                vListInsert
                0x00002b38                vListRemove
 .text.__main   0x00002b60       0x14 c:/nxp/lpcxpresso_4.1.5_219/lpcxpresso/tools/bin/../lib/gcc/arm-none-eabi/4.5.1/../../../../arm-none-eabi/lib/thumb2\libcr_semihost.a(_cr__main.o)
                0x00002b60                __CR_SEMIHOST
                0x00002b60                __main
 .text._initio  0x00002b74       0x9c c:/nxp/lpcxpresso_4.1.5_219/lpcxpresso/tools/bin/../lib/gcc/arm-none-eabi/4.5.1/../../../../arm-none-eabi/lib/thumb2\libcr_c.a(initio.o)
                0x00002b74                _initio
 .text.memcmp   0x00002c10       0x46 c:/nxp/lpcxpresso_4.1.5_219/lpcxpresso/tools/bin/../lib/gcc/arm-none-eabi/4.5.1/../../../../arm-none-eabi/lib/thumb2\libcr_c.a(memcmp.o)
                0x00002c10                memcmp
 *fill*         0x00002c56        0x2 00
 .text.setvbuf  0x00002c58       0x48 c:/nxp/lpcxpresso_4.1.5_219/lpcxpresso/tools/bin/../lib/gcc/arm-none-eabi/4.5.1/../../../../arm-none-eabi/lib/thumb2\libcr_c.a(setvbuf.o)
                0x00002c58                setvbuf
 .text.strncpy  0x00002ca0       0x58 c:/nxp/lpcxpresso_4.1.5_219/lpcxpresso/tools/bin/../lib/gcc/arm-none-eabi/4.5.1/../../../../arm-none-eabi/lib/thumb2\libcr_c.a(strncpy.o)
                0x00002ca0                strncpy
 .text.memcpy   0x00002cf8        0x4 c:/nxp/lpcxpresso_4.1.5_219/lpcxpresso/tools/bin/../lib/gcc/arm-none-eabi/4.5.1/../../../../arm-none-eabi/lib/thumb2\libcr_c.a(memcpy.o)
                0x00002cf8                memcpy
 .text.memset   0x00002cfc        0x4 c:/nxp/lpcxpresso_4.1.5_219/lpcxpresso/tools/bin/../lib/gcc/arm-none-eabi/4.5.1/../../../../arm-none-eabi/lib/thumb2\libcr_c.a(memset.o)
                0x00002cfc                memset
 .text._deferredlazyseek
                0x00002d00       0x44 c:/nxp/lpcxpresso_4.1.5_219/lpcxpresso/tools/bin/../lib/gcc/arm-none-eabi/4.5.1/../../../../arm-none-eabi/lib/thumb2\libcr_c.a(_deferredlazyseek.o)
                0x00002d00                _deferredlazyseek
 .text._fdopen  0x00002d44       0x6e c:/nxp/lpcxpresso_4.1.5_219/lpcxpresso/tools/bin/../lib/gcc/arm-none-eabi/4.5.1/../../../../arm-none-eabi/lib/thumb2\libcr_c.a(_fdopen.o)
                0x00002d44                _fdopen
 .text._fflush  0x00002db2       0x58 c:/nxp/lpcxpresso_4.1.5_219/lpcxpresso/tools/bin/../lib/gcc/arm-none-eabi/4.5.1/../../../../arm-none-eabi/lib/thumb2\libcr_c.a(_fflush.o)
                0x00002db2                _fflush
 *fill*         0x00002e0a        0x2 00
 .text._Cwritebuf
                0x00002e0c       0x88 c:/nxp/lpcxpresso_4.1.5_219/lpcxpresso/tools/bin/../lib/gcc/arm-none-eabi/4.5.1/../../../../arm-none-eabi/lib/thumb2\libcr_c.a(_writebuf.o)
                0x00002e0c                _Cwritebuf
 .text.malloc   0x00002e94       0xd0 c:/nxp/lpcxpresso_4.1.5_219/lpcxpresso/tools/bin/../lib/gcc/arm-none-eabi/4.5.1/../../../../arm-none-eabi/lib/thumb2\libcr_c.a(alloc.o)
                0x00002e94                malloc
 .text.free     0x00002f64        0xa c:/nxp/lpcxpresso_4.1.5_219/lpcxpresso/tools/bin/../lib/gcc/arm-none-eabi/4.5.1/../../../../arm-none-eabi/lib/thumb2\libcr_c.a(alloc.o)
                0x00002f64                free
 *fill*         0x00002f6e        0x2 00
 .text._Csys_alloc
                0x00002f70       0x20 c:/nxp/lpcxpresso_4.1.5_219/lpcxpresso/tools/bin/../lib/gcc/arm-none-eabi/4.5.1/../../../../arm-none-eabi/lib/thumb2\libcr_c.a(alloc.o)
                0x00002f70                _Csys_alloc
 .text.fclose   0x00002f90       0x72 c:/nxp/lpcxpresso_4.1.5_219/lpcxpresso/tools/bin/../lib/gcc/arm-none-eabi/4.5.1/../../../../arm-none-eabi/lib/thumb2\libcr_c.a(fclose.o)
                0x00002f90                fclose
 *fill*         0x00003002        0x2 00
 .text.fflush   0x00003004       0x34 c:/nxp/lpcxpresso_4.1.5_219/lpcxpresso/tools/bin/../lib/gcc/arm-none-eabi/4.5.1/../../../../arm-none-eabi/lib/thumb2\libcr_c.a(fflush.o)
                0x00003004                fflush
 .text.fseek    0x00003038      0x110 c:/nxp/lpcxpresso_4.1.5_219/lpcxpresso/tools/bin/../lib/gcc/arm-none-eabi/4.5.1/../../../../arm-none-eabi/lib/thumb2\libcr_c.a(fseek.o)
                0x00003038                fseek
 .text.ftell    0x00003148       0x50 c:/nxp/lpcxpresso_4.1.5_219/lpcxpresso/tools/bin/../lib/gcc/arm-none-eabi/4.5.1/../../../../arm-none-eabi/lib/thumb2\libcr_c.a(ftell.o)
                0x00003148                ftell
 .text.remove   0x00003198       0x14 c:/nxp/lpcxpresso_4.1.5_219/lpcxpresso/tools/bin/../lib/gcc/arm-none-eabi/4.5.1/../../../../arm-none-eabi/lib/thumb2\libcr_c.a(remove.o)
                0x00003198                remove
 .text.strlen   0x000031ac       0x4e c:/nxp/lpcxpresso_4.1.5_219/lpcxpresso/tools/bin/../lib/gcc/arm-none-eabi/4.5.1/../../../../arm-none-eabi/lib/thumb2\libcr_c.a(strlen.o)
                0x000031ac                strlen
 .text._do_fflush
                0x000031fa       0x44 c:/nxp/lpcxpresso_4.1.5_219/lpcxpresso/tools/bin/../lib/gcc/arm-none-eabi/4.5.1/../../../../arm-none-eabi/lib/thumb2\libcr_c.a(_do_fflush.o)
                0x000031fa                _do_fflush
 *fill*         0x0000323e        0x2 00
 .text.__aeabi_fmul
                0x00003240       0xbc c:/nxp/lpcxpresso_4.1.5_219/lpcxpresso/tools/bin/../lib/gcc/arm-none-eabi/4.5.1/thumb2\libcr_eabihelpers.a(float.o)
                0x00003240                __aeabi_fmul
 .text.__aeabi_f2uiz
                0x000032fc       0x26 c:/nxp/lpcxpresso_4.1.5_219/lpcxpresso/tools/bin/../lib/gcc/arm-none-eabi/4.5.1/thumb2\libcr_eabihelpers.a(float.o)
                0x000032fc                __aeabi_f2uiz
 .text.__bhs_ui2f
                0x00003322       0x26 c:/nxp/lpcxpresso_4.1.5_219/lpcxpresso/tools/bin/../lib/gcc/arm-none-eabi/4.5.1/thumb2\libcr_eabihelpers.a(float.o)
                0x00003322                __bhs_ui2f
 .text.__aeabi_ui2f
                0x00003348        0x8 c:/nxp/lpcxpresso_4.1.5_219/lpcxpresso/tools/bin/../lib/gcc/arm-none-eabi/4.5.1/thumb2\libcr_eabihelpers.a(float.o)
                0x00003348                __aeabi_ui2f
 .text.__aeabi_memcpy
                0x00003350       0x26 c:/nxp/lpcxpresso_4.1.5_219/lpcxpresso/tools/bin/../lib/gcc/arm-none-eabi/4.5.1/thumb2\libcr_eabihelpers.a(memcpy.o)
                0x00003350                __aeabi_memcpy4
                0x00003350                __aeabi_memcpy8
                0x00003350                __aeabi_memcpy
 .text.__aeabi_memset_lowlevel
                0x00003376       0x24 c:/nxp/lpcxpresso_4.1.5_219/lpcxpresso/tools/bin/../lib/gcc/arm-none-eabi/4.5.1/thumb2\libcr_eabihelpers.a(memcpy.o)
                0x00003376                __aeabi_lowlevel_memset
 *fill*         0x0000339a        0x2 00
 .text.__sys_appexit
                0x0000339c        0xc c:/nxp/lpcxpresso_4.1.5_219/lpcxpresso/tools/bin/../lib/gcc/arm-none-eabi/4.5.1/../../../../arm-none-eabi/lib/thumb2\libcr_semihost.a(__sys_appexit.o)
                0x0000339c                __sys_appexit
                0x0000339c                __exit
 .text.__sys_close
                0x000033a8        0xc c:/nxp/lpcxpresso_4.1.5_219/lpcxpresso/tools/bin/../lib/gcc/arm-none-eabi/4.5.1/../../../../arm-none-eabi/lib/thumb2\libcr_semihost.a(__sys_close.o)
                0x000033a8                __sys_close
 .text.__sys_flen
                0x000033b4        0xc c:/nxp/lpcxpresso_4.1.5_219/lpcxpresso/tools/bin/../lib/gcc/arm-none-eabi/4.5.1/../../../../arm-none-eabi/lib/thumb2\libcr_semihost.a(__sys_flen.o)
                0x000033b4                __sys_flen
 .text.__sys_istty
                0x000033c0        0xc c:/nxp/lpcxpresso_4.1.5_219/lpcxpresso/tools/bin/../lib/gcc/arm-none-eabi/4.5.1/../../../../arm-none-eabi/lib/thumb2\libcr_semihost.a(__sys_istty.o)
                0x000033c0                __sys_istty
 .text.__sys_remove
                0x000033cc        0xc c:/nxp/lpcxpresso_4.1.5_219/lpcxpresso/tools/bin/../lib/gcc/arm-none-eabi/4.5.1/../../../../arm-none-eabi/lib/thumb2\libcr_semihost.a(__sys_remove.o)
                0x000033cc                __sys_remove
 .text.__sys_seek
                0x000033d8        0xc c:/nxp/lpcxpresso_4.1.5_219/lpcxpresso/tools/bin/../lib/gcc/arm-none-eabi/4.5.1/../../../../arm-none-eabi/lib/thumb2\libcr_semihost.a(__sys_seek.o)
                0x000033d8                __sys_seek
 .text.__sys_tmpnam
                0x000033e4        0xc c:/nxp/lpcxpresso_4.1.5_219/lpcxpresso/tools/bin/../lib/gcc/arm-none-eabi/4.5.1/../../../../arm-none-eabi/lib/thumb2\libcr_semihost.a(__sys_tmpnam.o)
                0x000033e4                __sys_tmpnam
 .text.__sys_write
                0x000033f0        0xc c:/nxp/lpcxpresso_4.1.5_219/lpcxpresso/tools/bin/../lib/gcc/arm-none-eabi/4.5.1/../../../../arm-none-eabi/lib/thumb2\libcr_semihost.a(__sys_write.o)
                0x000033f0                __sys_write
                0x000033f0                __write
 .text._sbrk    0x000033fc       0x40 c:/nxp/lpcxpresso_4.1.5_219/lpcxpresso/tools/bin/../lib/gcc/arm-none-eabi/4.5.1/../../../../arm-none-eabi/lib/thumb2\libcr_semihost.a(_cr_sbrk.o)
                0x000033fc                _sbrk
 .text.__check_heap_overflow
                0x0000343c       0x2c c:/nxp/lpcxpresso_4.1.5_219/lpcxpresso/tools/bin/../lib/gcc/arm-none-eabi/4.5.1/../../../../arm-none-eabi/lib/thumb2\libcr_semihost.a(_cr_check_heap.o)
                0x0000343c                __check_heap_overflow
 *(.rodata .rodata.*)
 .rodata        0x00003468       0x14 ./lpc17xx_ssp.o
 .rodata        0x0000347c       0x78 ./main.o
 .rodata        0x000034f4       0x14 C:\Users\alex1104\Documents\LPCXpresso_4.1.5_219\workspace\FreeRTOS_Library\Debug\libFreeRTOS_Library.a(tasks.o)
 .rodata.str1.4
                0x00003508        0x8 C:\Users\alex1104\Documents\LPCXpresso_4.1.5_219\workspace\FreeRTOS_Library\Debug\libFreeRTOS_Library.a(tasks.o)
 .rodata.str1.1
                0x00003510        0x4 c:/nxp/lpcxpresso_4.1.5_219/lpcxpresso/tools/bin/../lib/gcc/arm-none-eabi/4.5.1/../../../../arm-none-eabi/lib/thumb2\libcr_c.a(initio.o)
 .rodata.str1.1
                0x00003514       0x18 c:/nxp/lpcxpresso_4.1.5_219/lpcxpresso/tools/bin/../lib/gcc/arm-none-eabi/4.5.1/../../../../arm-none-eabi/lib/thumb2\libcr_c.a(alloc.o)
                0x0000352c                . = ALIGN (0x4)

.glue_7         0x0000352c        0x0
 .glue_7        0x00000000        0x0 linker stubs

.glue_7t        0x0000352c        0x0
 .glue_7t       0x00000000        0x0 linker stubs

.vfp11_veneer   0x0000352c        0x0
 .vfp11_veneer  0x00000000        0x0 linker stubs

.v4_bx          0x0000352c        0x0
 .v4_bx         0x00000000        0x0 linker stubs

.ARM.extab
 *(.ARM.extab* .gnu.linkonce.armextab.*)
                0x0000352c                __exidx_start = .

.ARM.exidx
 *(.ARM.exidx* .gnu.linkonce.armexidx.*)
                0x0000352c                __exidx_end = .
                0x0000352c                _etext = .

.data_RAM2      0x2007c000        0x0 load address 0x0000352c
 FILL mask 0xff
 *(.data.$RAM2*)
 *(.data.$RamAHB32*)
                0x2007c000                . = ALIGN (0x4)

.uninit_RESERVED
 *(.bss.$RESERVED*)

.data           0x10000000       0x24 load address 0x0000352c
 FILL mask 0xff
                0x10000000                _data = .
 *(vtable)
 *(.data*)
 .data          0x10000000       0x18 ./main.o
                0x10000000                pcTextForDisplayDistanceTask
                0x10000004                pcTextForModeSwitchTask
                0x10000008                pcTextForModeGreenLed
                0x1000000c                pcTextForModeRedLed
                0x10000010                pcTextForBITE
                0x10000014                distance
 .data          0x10000018        0x4 C:\Users\alex1104\Documents\LPCXpresso_4.1.5_219\workspace\CMSISv1p30_LPC17xx\Debug\libCMSISv1p30_LPC17xx.a(system_LPC17xx.o)
                0x10000018                SystemCoreClock
 .data          0x1000001c        0x4 C:\Users\alex1104\Documents\LPCXpresso_4.1.5_219\workspace\FreeRTOS_Library\Debug\libFreeRTOS_Library.a(heap_2.o)
 .data          0x10000020        0x4 C:\Users\alex1104\Documents\LPCXpresso_4.1.5_219\workspace\FreeRTOS_Library\Debug\libFreeRTOS_Library.a(port.o)
                0x10000024                . = ALIGN (0x4)
                0x10000024                _edata = .

.bss_RAM2       0x2007c000        0x0
 *(.bss.$RAM2*)
 *(.bss.$RamAHB32*)
                0x2007c000                . = ALIGN (0x4)

.bss            0x10000028     0x2af0
                0x10000028                _bss = .
 *(.bss*)
 .bss           0x10000028        0x4 ./adc.o
                0x10000028                ADC0IntDone1
 .bss           0x1000002c        0x4 ./main.o
                0x1000002c                iMode
 .bss           0x10000030      0x100 C:\Users\alex1104\Documents\LPCXpresso_4.1.5_219\workspace\FreeRTOS_Library\Debug\libFreeRTOS_Library.a(tasks.o)
                0x10000034                pxCurrentTCB
 .bss           0x10000130     0x2818 C:\Users\alex1104\Documents\LPCXpresso_4.1.5_219\workspace\FreeRTOS_Library\Debug\libFreeRTOS_Library.a(heap_2.o)
 .bss.errno     0x10002948        0x4 c:/nxp/lpcxpresso_4.1.5_219/lpcxpresso/tools/bin/../lib/gcc/arm-none-eabi/4.5.1/../../../../arm-none-eabi/lib/thumb2\libcr_c.a(errno.o)
                0x10002948                errno
 *(COMMON)
 COMMON         0x1000294c       0x20 ./adc.o
                0x1000294c                ADC0Value
 COMMON         0x1000296c       0x54 ./circ_buffer.o
                0x1000296c                pos
                0x10002970                circ
 COMMON         0x100029c0        0x4 ./eint.o
                0x100029c0                xBinarySemaphoreModeSwitch
 COMMON         0x100029c4        0x8 ./main.o
                0x100029c4                xTaskBITE
                0x100029c8                xTaskDisplayDistance
 COMMON         0x100029cc        0x4 c:/nxp/lpcxpresso_4.1.5_219/lpcxpresso/tools/bin/../lib/gcc/arm-none-eabi/4.5.1/../../../../arm-none-eabi/lib/thumb2\libcr_c.a(initio.o)
                0x100029cc                _extra
 COMMON         0x100029d0      0x140 c:/nxp/lpcxpresso_4.1.5_219/lpcxpresso/tools/bin/../lib/gcc/arm-none-eabi/4.5.1/../../../../arm-none-eabi/lib/thumb2\libcr_c.a(stdio.o)
                0x100029d0                __Ciob
 COMMON         0x10002b10        0x8 c:/nxp/lpcxpresso_4.1.5_219/lpcxpresso/tools/bin/../lib/gcc/arm-none-eabi/4.5.1/../../../../arm-none-eabi/lib/thumb2\libcr_c.a(__init_alloc.o)
                0x10002b10                __heaps
                0x10002b14                __end_of_heap
                0x10002b18                . = ALIGN (0x4)
                0x10002b18                _ebss = .
                0x10002b18                PROVIDE (end, .)
                0x10002b18                PROVIDE (_pvHeapStart, .)
                0x10008000                PROVIDE (_vStackTop, (__top_RamLoc32 - 0x0))
OUTPUT(Example05.axf elf32-littlearm)

.debug_abbrev   0x00000000     0x148e
 .debug_abbrev  0x00000000      0x18f ./adc.o
 .debug_abbrev  0x0000018f      0x141 ./circ_buffer.o
 .debug_abbrev  0x000002d0       0xb4 ./cr_startup_lpc17.o
 .debug_abbrev  0x00000384      0x19a ./eint.o
 .debug_abbrev  0x0000051e      0x174 ./lpc17xx_clkpwr.o
 .debug_abbrev  0x00000692       0x6a ./lpc17xx_libcfg_default.o
 .debug_abbrev  0x000006fc      0x19d ./lpc17xx_ssp.o
 .debug_abbrev  0x00000899      0x204 ./main.o
 .debug_abbrev  0x00000a9d      0x112 ./ssp.o
 .debug_abbrev  0x00000baf       0xce C:\Users\alex1104\Documents\LPCXpresso_4.1.5_219\workspace\CMSISv1p30_LPC17xx\Debug\libCMSISv1p30_LPC17xx.a(system_LPC17xx.o)
 .debug_abbrev  0x00000c7d      0x1b3 C:\Users\alex1104\Documents\LPCXpresso_4.1.5_219\workspace\FreeRTOS_Library\Debug\libFreeRTOS_Library.a(queue.o)
 .debug_abbrev  0x00000e30      0x2b1 C:\Users\alex1104\Documents\LPCXpresso_4.1.5_219\workspace\FreeRTOS_Library\Debug\libFreeRTOS_Library.a(tasks.o)
 .debug_abbrev  0x000010e1      0x1ab C:\Users\alex1104\Documents\LPCXpresso_4.1.5_219\workspace\FreeRTOS_Library\Debug\libFreeRTOS_Library.a(heap_2.o)
 .debug_abbrev  0x0000128c      0x128 C:\Users\alex1104\Documents\LPCXpresso_4.1.5_219\workspace\FreeRTOS_Library\Debug\libFreeRTOS_Library.a(port.o)
 .debug_abbrev  0x000013b4       0xda C:\Users\alex1104\Documents\LPCXpresso_4.1.5_219\workspace\FreeRTOS_Library\Debug\libFreeRTOS_Library.a(list.o)

.debug_info     0x00000000     0x55d0
 .debug_info    0x00000000      0x954 ./adc.o
 .debug_info    0x00000954      0x1b0 ./circ_buffer.o
 .debug_info    0x00000b04      0x210 ./cr_startup_lpc17.o
 .debug_info    0x00000d14      0x95d ./eint.o
 .debug_info    0x00001671      0x641 ./lpc17xx_clkpwr.o
 .debug_info    0x00001cb2       0xcd ./lpc17xx_libcfg_default.o
 .debug_info    0x00001d7f      0x785 ./lpc17xx_ssp.o
 .debug_info    0x00002504      0xa8f ./main.o
 .debug_info    0x00002f93      0x487 ./ssp.o
 .debug_info    0x0000341a      0x357 C:\Users\alex1104\Documents\LPCXpresso_4.1.5_219\workspace\CMSISv1p30_LPC17xx\Debug\libCMSISv1p30_LPC17xx.a(system_LPC17xx.o)
 .debug_info    0x00003771      0x816 C:\Users\alex1104\Documents\LPCXpresso_4.1.5_219\workspace\FreeRTOS_Library\Debug\libFreeRTOS_Library.a(queue.o)
 .debug_info    0x00003f87      0xe78 C:\Users\alex1104\Documents\LPCXpresso_4.1.5_219\workspace\FreeRTOS_Library\Debug\libFreeRTOS_Library.a(tasks.o)
 .debug_info    0x00004dff      0x2eb C:\Users\alex1104\Documents\LPCXpresso_4.1.5_219\workspace\FreeRTOS_Library\Debug\libFreeRTOS_Library.a(heap_2.o)
 .debug_info    0x000050ea      0x221 C:\Users\alex1104\Documents\LPCXpresso_4.1.5_219\workspace\FreeRTOS_Library\Debug\libFreeRTOS_Library.a(port.o)
 .debug_info    0x0000530b      0x2c5 C:\Users\alex1104\Documents\LPCXpresso_4.1.5_219\workspace\FreeRTOS_Library\Debug\libFreeRTOS_Library.a(list.o)

.debug_line     0x00000000     0x4f67
 .debug_line    0x00000000      0x570 ./adc.o
 .debug_line    0x00000570      0x53c ./circ_buffer.o
 .debug_line    0x00000aac      0x45c ./cr_startup_lpc17.o
 .debug_line    0x00000f08      0x525 ./eint.o
 .debug_line    0x0000142d      0x483 ./lpc17xx_clkpwr.o
 .debug_line    0x000018b0      0x347 ./lpc17xx_libcfg_default.o
 .debug_line    0x00001bf7      0x75f ./lpc17xx_ssp.o
 .debug_line    0x00002356      0x6fd ./main.o
 .debug_line    0x00002a53      0x3ba ./ssp.o
 .debug_line    0x00002e0d      0x40e C:\Users\alex1104\Documents\LPCXpresso_4.1.5_219\workspace\CMSISv1p30_LPC17xx\Debug\libCMSISv1p30_LPC17xx.a(system_LPC17xx.o)
 .debug_line    0x0000321b      0x634 C:\Users\alex1104\Documents\LPCXpresso_4.1.5_219\workspace\FreeRTOS_Library\Debug\libFreeRTOS_Library.a(queue.o)
 .debug_line    0x0000384f      0x7d9 C:\Users\alex1104\Documents\LPCXpresso_4.1.5_219\workspace\FreeRTOS_Library\Debug\libFreeRTOS_Library.a(tasks.o)
 .debug_line    0x00004028      0x53b C:\Users\alex1104\Documents\LPCXpresso_4.1.5_219\workspace\FreeRTOS_Library\Debug\libFreeRTOS_Library.a(heap_2.o)
 .debug_line    0x00004563      0x502 C:\Users\alex1104\Documents\LPCXpresso_4.1.5_219\workspace\FreeRTOS_Library\Debug\libFreeRTOS_Library.a(port.o)
 .debug_line    0x00004a65      0x502 C:\Users\alex1104\Documents\LPCXpresso_4.1.5_219\workspace\FreeRTOS_Library\Debug\libFreeRTOS_Library.a(list.o)

.debug_macinfo  0x00000000    0x7cb0f
 .debug_macinfo
                0x00000000     0x8ab0 ./adc.o
 .debug_macinfo
                0x00008ab0     0x8881 ./circ_buffer.o
 .debug_macinfo
                0x00011331     0x3114 ./cr_startup_lpc17.o
 .debug_macinfo
                0x00014445     0x953b ./eint.o
 .debug_macinfo
                0x0001d980     0x89f7 ./lpc17xx_clkpwr.o
 .debug_macinfo
                0x00026377     0x340a ./lpc17xx_libcfg_default.o
 .debug_macinfo
                0x00029781     0x9cba ./lpc17xx_ssp.o
 .debug_macinfo
                0x0003343b     0xb0b6 ./main.o
 .debug_macinfo
                0x0003e4f1     0x8807 ./ssp.o
 .debug_macinfo
                0x00046cf8     0x77ef C:\Users\alex1104\Documents\LPCXpresso_4.1.5_219\workspace\CMSISv1p30_LPC17xx\Debug\libCMSISv1p30_LPC17xx.a(system_LPC17xx.o)
 .debug_macinfo
                0x0004e4e7     0x98bd C:\Users\alex1104\Documents\LPCXpresso_4.1.5_219\workspace\FreeRTOS_Library\Debug\libFreeRTOS_Library.a(queue.o)
 .debug_macinfo
                0x00057da4     0x9b5b C:\Users\alex1104\Documents\LPCXpresso_4.1.5_219\workspace\FreeRTOS_Library\Debug\libFreeRTOS_Library.a(tasks.o)
 .debug_macinfo
                0x000618ff     0x9371 C:\Users\alex1104\Documents\LPCXpresso_4.1.5_219\workspace\FreeRTOS_Library\Debug\libFreeRTOS_Library.a(heap_2.o)
 .debug_macinfo
                0x0006ac70     0x91db C:\Users\alex1104\Documents\LPCXpresso_4.1.5_219\workspace\FreeRTOS_Library\Debug\libFreeRTOS_Library.a(port.o)
 .debug_macinfo
                0x00073e4b     0x8cc4 C:\Users\alex1104\Documents\LPCXpresso_4.1.5_219\workspace\FreeRTOS_Library\Debug\libFreeRTOS_Library.a(list.o)

.debug_loc      0x00000000     0x20e9
 .debug_loc     0x00000000       0xe0 ./adc.o
 .debug_loc     0x000000e0       0xe0 ./circ_buffer.o
 .debug_loc     0x000001c0      0x1f0 ./cr_startup_lpc17.o
 .debug_loc     0x000003b0       0xd4 ./eint.o
 .debug_loc     0x00000484      0x1bc ./lpc17xx_clkpwr.o
 .debug_loc     0x00000640       0x38 ./lpc17xx_libcfg_default.o
 .debug_loc     0x00000678      0x3f0 ./lpc17xx_ssp.o
 .debug_loc     0x00000a68      0x238 ./main.o
 .debug_loc     0x00000ca0       0x3a ./ssp.o
 .debug_loc     0x00000cda       0x58 C:\Users\alex1104\Documents\LPCXpresso_4.1.5_219\workspace\CMSISv1p30_LPC17xx\Debug\libCMSISv1p30_LPC17xx.a(system_LPC17xx.o)
 .debug_loc     0x00000d32      0x69f C:\Users\alex1104\Documents\LPCXpresso_4.1.5_219\workspace\FreeRTOS_Library\Debug\libFreeRTOS_Library.a(queue.o)
 .debug_loc     0x000013d1      0xa25 C:\Users\alex1104\Documents\LPCXpresso_4.1.5_219\workspace\FreeRTOS_Library\Debug\libFreeRTOS_Library.a(tasks.o)
 .debug_loc     0x00001df6      0x215 C:\Users\alex1104\Documents\LPCXpresso_4.1.5_219\workspace\FreeRTOS_Library\Debug\libFreeRTOS_Library.a(heap_2.o)
 .debug_loc     0x0000200b       0x89 C:\Users\alex1104\Documents\LPCXpresso_4.1.5_219\workspace\FreeRTOS_Library\Debug\libFreeRTOS_Library.a(port.o)
 .debug_loc     0x00002094       0x55 C:\Users\alex1104\Documents\LPCXpresso_4.1.5_219\workspace\FreeRTOS_Library\Debug\libFreeRTOS_Library.a(list.o)

.debug_pubnames
                0x00000000      0xc79
 .debug_pubnames
                0x00000000       0x5d ./adc.o
 .debug_pubnames
                0x0000005d       0x5f ./circ_buffer.o
 .debug_pubnames
                0x000000bc       0xfd ./cr_startup_lpc17.o
 .debug_pubnames
                0x000001b9       0x53 ./eint.o
 .debug_pubnames
                0x0000020c       0xbb ./lpc17xx_clkpwr.o
 .debug_pubnames
                0x000002c7       0x23 ./lpc17xx_libcfg_default.o
 .debug_pubnames
                0x000002ea      0x15c ./lpc17xx_ssp.o
 .debug_pubnames
                0x00000446      0x210 ./main.o
 .debug_pubnames
                0x00000656       0x1e ./ssp.o
 .debug_pubnames
                0x00000674       0x4f C:\Users\alex1104\Documents\LPCXpresso_4.1.5_219\workspace\CMSISv1p30_LPC17xx\Debug\libCMSISv1p30_LPC17xx.a(system_LPC17xx.o)
 .debug_pubnames
                0x000006c3      0x149 C:\Users\alex1104\Documents\LPCXpresso_4.1.5_219\workspace\FreeRTOS_Library\Debug\libFreeRTOS_Library.a(queue.o)
 .debug_pubnames
                0x0000080c      0x28b C:\Users\alex1104\Documents\LPCXpresso_4.1.5_219\workspace\FreeRTOS_Library\Debug\libFreeRTOS_Library.a(tasks.o)
 .debug_pubnames
                0x00000a97       0x64 C:\Users\alex1104\Documents\LPCXpresso_4.1.5_219\workspace\FreeRTOS_Library\Debug\libFreeRTOS_Library.a(heap_2.o)
 .debug_pubnames
                0x00000afb      0x10d C:\Users\alex1104\Documents\LPCXpresso_4.1.5_219\workspace\FreeRTOS_Library\Debug\libFreeRTOS_Library.a(port.o)
 .debug_pubnames
                0x00000c08       0x71 C:\Users\alex1104\Documents\LPCXpresso_4.1.5_219\workspace\FreeRTOS_Library\Debug\libFreeRTOS_Library.a(list.o)

.debug_pubtypes
                0x00000000      0x732
 .debug_pubtypes
                0x00000000       0x8e ./adc.o
 .debug_pubtypes
                0x0000008e       0x1f ./circ_buffer.o
 .debug_pubtypes
                0x000000ad       0x12 ./cr_startup_lpc17.o
 .debug_pubtypes
                0x000000bf       0xd8 ./eint.o
 .debug_pubtypes
                0x00000197       0x5f ./lpc17xx_clkpwr.o
 .debug_pubtypes
                0x000001f6       0x2b ./lpc17xx_libcfg_default.o
 .debug_pubtypes
                0x00000221       0xc8 ./lpc17xx_ssp.o
 .debug_pubtypes
                0x000002e9       0xbf ./main.o
 .debug_pubtypes
                0x000003a8       0x7f ./ssp.o
 .debug_pubtypes
                0x00000427       0x32 C:\Users\alex1104\Documents\LPCXpresso_4.1.5_219\workspace\CMSISv1p30_LPC17xx\Debug\libCMSISv1p30_LPC17xx.a(system_LPC17xx.o)
 .debug_pubtypes
                0x00000459       0xd4 C:\Users\alex1104\Documents\LPCXpresso_4.1.5_219\workspace\FreeRTOS_Library\Debug\libFreeRTOS_Library.a(queue.o)
 .debug_pubtypes
                0x0000052d      0x10c C:\Users\alex1104\Documents\LPCXpresso_4.1.5_219\workspace\FreeRTOS_Library\Debug\libFreeRTOS_Library.a(tasks.o)
 .debug_pubtypes
                0x00000639       0x4c C:\Users\alex1104\Documents\LPCXpresso_4.1.5_219\workspace\FreeRTOS_Library\Debug\libFreeRTOS_Library.a(heap_2.o)
 .debug_pubtypes
                0x00000685       0x33 C:\Users\alex1104\Documents\LPCXpresso_4.1.5_219\workspace\FreeRTOS_Library\Debug\libFreeRTOS_Library.a(port.o)
 .debug_pubtypes
                0x000006b8       0x7a C:\Users\alex1104\Documents\LPCXpresso_4.1.5_219\workspace\FreeRTOS_Library\Debug\libFreeRTOS_Library.a(list.o)

.debug_aranges  0x00000000      0x398
 .debug_aranges
                0x00000000       0x38 ./adc.o
 .debug_aranges
                0x00000038       0x38 ./circ_buffer.o
 .debug_aranges
                0x00000070       0x70 ./cr_startup_lpc17.o
 .debug_aranges
                0x000000e0       0x38 ./eint.o
 .debug_aranges
                0x00000118       0x60 ./lpc17xx_clkpwr.o
 .debug_aranges
                0x00000178       0x20 ./lpc17xx_libcfg_default.o
 .debug_aranges
                0x00000198       0xa8 ./lpc17xx_ssp.o
 .debug_aranges
                0x00000240       0x70 ./main.o
 .debug_aranges
                0x000002b0       0x20 ./ssp.o
 .debug_aranges
                0x000002d0       0x28 C:\Users\alex1104\Documents\LPCXpresso_4.1.5_219\workspace\CMSISv1p30_LPC17xx\Debug\libCMSISv1p30_LPC17xx.a(system_LPC17xx.o)
 .debug_aranges
                0x000002f8       0x20 C:\Users\alex1104\Documents\LPCXpresso_4.1.5_219\workspace\FreeRTOS_Library\Debug\libFreeRTOS_Library.a(queue.o)
 .debug_aranges
                0x00000318       0x20 C:\Users\alex1104\Documents\LPCXpresso_4.1.5_219\workspace\FreeRTOS_Library\Debug\libFreeRTOS_Library.a(tasks.o)
 .debug_aranges
                0x00000338       0x20 C:\Users\alex1104\Documents\LPCXpresso_4.1.5_219\workspace\FreeRTOS_Library\Debug\libFreeRTOS_Library.a(heap_2.o)
 .debug_aranges
                0x00000358       0x20 C:\Users\alex1104\Documents\LPCXpresso_4.1.5_219\workspace\FreeRTOS_Library\Debug\libFreeRTOS_Library.a(port.o)
 .debug_aranges
                0x00000378       0x20 C:\Users\alex1104\Documents\LPCXpresso_4.1.5_219\workspace\FreeRTOS_Library\Debug\libFreeRTOS_Library.a(list.o)

.debug_ranges   0x00000000      0x2e0
 .debug_ranges  0x00000000       0x28 ./adc.o
 .debug_ranges  0x00000028       0x28 ./circ_buffer.o
 .debug_ranges  0x00000050       0x60 ./cr_startup_lpc17.o
 .debug_ranges  0x000000b0       0x28 ./eint.o
 .debug_ranges  0x000000d8       0x50 ./lpc17xx_clkpwr.o
 .debug_ranges  0x00000128       0x10 ./lpc17xx_libcfg_default.o
 .debug_ranges  0x00000138       0x98 ./lpc17xx_ssp.o
 .debug_ranges  0x000001d0       0x78 ./main.o
 .debug_ranges  0x00000248       0x10 ./ssp.o
 .debug_ranges  0x00000258       0x18 C:\Users\alex1104\Documents\LPCXpresso_4.1.5_219\workspace\CMSISv1p30_LPC17xx\Debug\libCMSISv1p30_LPC17xx.a(system_LPC17xx.o)
 .debug_ranges  0x00000270       0x70 C:\Users\alex1104\Documents\LPCXpresso_4.1.5_219\workspace\FreeRTOS_Library\Debug\libFreeRTOS_Library.a(tasks.o)

.debug_str      0x00000000     0x1daa
 .debug_str     0x00000000      0x604 ./adc.o
                                0x65b (size before relaxing)
 .debug_str     0x00000604       0x4d ./circ_buffer.o
                                0x145 (size before relaxing)
 .debug_str     0x00000651       0xee ./cr_startup_lpc17.o
                                0x1d6 (size before relaxing)
 .debug_str     0x0000073f      0x22e ./eint.o
                                0x6ad (size before relaxing)
 .debug_str     0x0000096d      0x13d ./lpc17xx_clkpwr.o
                                0x371 (size before relaxing)
 .debug_str     0x00000aaa       0x33 ./lpc17xx_libcfg_default.o
                                0x119 (size before relaxing)
 .debug_str     0x00000add      0x2b1 ./lpc17xx_ssp.o
                                0x3f9 (size before relaxing)
 .debug_str     0x00000d8e      0x1ff ./main.o
                                0x5dd (size before relaxing)
 .debug_str     0x00000f8d       0x49 ./ssp.o
                                0x2fb (size before relaxing)
 .debug_str     0x00000fd6       0x8d C:\Users\alex1104\Documents\LPCXpresso_4.1.5_219\workspace\CMSISv1p30_LPC17xx\Debug\libCMSISv1p30_LPC17xx.a(system_LPC17xx.o)
                                0x269 (size before relaxing)
 .debug_str     0x00001063      0x41c C:\Users\alex1104\Documents\LPCXpresso_4.1.5_219\workspace\FreeRTOS_Library\Debug\libFreeRTOS_Library.a(queue.o)
                                0x4fe (size before relaxing)
 .debug_str     0x0000147f      0x62f C:\Users\alex1104\Documents\LPCXpresso_4.1.5_219\workspace\FreeRTOS_Library\Debug\libFreeRTOS_Library.a(tasks.o)
                                0x897 (size before relaxing)
 .debug_str     0x00001aae      0x150 C:\Users\alex1104\Documents\LPCXpresso_4.1.5_219\workspace\FreeRTOS_Library\Debug\libFreeRTOS_Library.a(heap_2.o)
                                0x26a (size before relaxing)
 .debug_str     0x00001bfe      0x11a C:\Users\alex1104\Documents\LPCXpresso_4.1.5_219\workspace\FreeRTOS_Library\Debug\libFreeRTOS_Library.a(port.o)
                                0x243 (size before relaxing)
 .debug_str     0x00001d18       0x92 C:\Users\alex1104\Documents\LPCXpresso_4.1.5_219\workspace\FreeRTOS_Library\Debug\libFreeRTOS_Library.a(list.o)
                                0x231 (size before relaxing)

.comment        0x00000000       0x2a
 .comment       0x00000000       0x2a ./adc.o
                                 0x2b (size before relaxing)
 .comment       0x00000000       0x2b ./circ_buffer.o
 .comment       0x00000000       0x2b ./cr_startup_lpc17.o
 .comment       0x00000000       0x2b ./eint.o
 .comment       0x00000000       0x2b ./lpc17xx_clkpwr.o
 .comment       0x00000000       0x2b ./lpc17xx_libcfg_default.o
 .comment       0x00000000       0x2b ./lpc17xx_ssp.o
 .comment       0x00000000       0x2b ./main.o
 .comment       0x00000000       0x2b ./ssp.o
 .comment       0x00000000       0x2b C:\Users\alex1104\Documents\LPCXpresso_4.1.5_219\workspace\CMSISv1p30_LPC17xx\Debug\libCMSISv1p30_LPC17xx.a(system_LPC17xx.o)
 .comment       0x00000000       0x2b C:\Users\alex1104\Documents\LPCXpresso_4.1.5_219\workspace\FreeRTOS_Library\Debug\libFreeRTOS_Library.a(queue.o)
 .comment       0x00000000       0x2b C:\Users\alex1104\Documents\LPCXpresso_4.1.5_219\workspace\FreeRTOS_Library\Debug\libFreeRTOS_Library.a(tasks.o)
 .comment       0x00000000       0x2b C:\Users\alex1104\Documents\LPCXpresso_4.1.5_219\workspace\FreeRTOS_Library\Debug\libFreeRTOS_Library.a(heap_2.o)
 .comment       0x00000000       0x2b C:\Users\alex1104\Documents\LPCXpresso_4.1.5_219\workspace\FreeRTOS_Library\Debug\libFreeRTOS_Library.a(port.o)
 .comment       0x00000000       0x2b C:\Users\alex1104\Documents\LPCXpresso_4.1.5_219\workspace\FreeRTOS_Library\Debug\libFreeRTOS_Library.a(list.o)
 .comment       0x00000000       0x2b c:/nxp/lpcxpresso_4.1.5_219/lpcxpresso/tools/bin/../lib/gcc/arm-none-eabi/4.5.1/../../../../arm-none-eabi/lib/thumb2\libcr_semihost.a(_cr__main.o)
 .comment       0x00000000       0x2b c:/nxp/lpcxpresso_4.1.5_219/lpcxpresso/tools/bin/../lib/gcc/arm-none-eabi/4.5.1/../../../../arm-none-eabi/lib/thumb2\libcr_c.a(initio.o)
 .comment       0x00000000       0x2b c:/nxp/lpcxpresso_4.1.5_219/lpcxpresso/tools/bin/../lib/gcc/arm-none-eabi/4.5.1/../../../../arm-none-eabi/lib/thumb2\libcr_c.a(memcmp.o)
 .comment       0x00000000       0x2b c:/nxp/lpcxpresso_4.1.5_219/lpcxpresso/tools/bin/../lib/gcc/arm-none-eabi/4.5.1/../../../../arm-none-eabi/lib/thumb2\libcr_c.a(setvbuf.o)
 .comment       0x00000000       0x2b c:/nxp/lpcxpresso_4.1.5_219/lpcxpresso/tools/bin/../lib/gcc/arm-none-eabi/4.5.1/../../../../arm-none-eabi/lib/thumb2\libcr_c.a(stdio.o)
 .comment       0x00000000       0x2b c:/nxp/lpcxpresso_4.1.5_219/lpcxpresso/tools/bin/../lib/gcc/arm-none-eabi/4.5.1/../../../../arm-none-eabi/lib/thumb2\libcr_c.a(strncpy.o)
 .comment       0x00000000       0x2b c:/nxp/lpcxpresso_4.1.5_219/lpcxpresso/tools/bin/../lib/gcc/arm-none-eabi/4.5.1/../../../../arm-none-eabi/lib/thumb2\libcr_c.a(memcpy.o)
 .comment       0x00000000       0x2b c:/nxp/lpcxpresso_4.1.5_219/lpcxpresso/tools/bin/../lib/gcc/arm-none-eabi/4.5.1/../../../../arm-none-eabi/lib/thumb2\libcr_c.a(memset.o)
 .comment       0x00000000       0x2b c:/nxp/lpcxpresso_4.1.5_219/lpcxpresso/tools/bin/../lib/gcc/arm-none-eabi/4.5.1/../../../../arm-none-eabi/lib/thumb2\libcr_c.a(__fillbuf.o)
 .comment       0x00000000       0x2b c:/nxp/lpcxpresso_4.1.5_219/lpcxpresso/tools/bin/../lib/gcc/arm-none-eabi/4.5.1/../../../../arm-none-eabi/lib/thumb2\libcr_c.a(_deferredlazyseek.o)
 .comment       0x00000000       0x2b c:/nxp/lpcxpresso_4.1.5_219/lpcxpresso/tools/bin/../lib/gcc/arm-none-eabi/4.5.1/../../../../arm-none-eabi/lib/thumb2\libcr_c.a(_fdopen.o)
 .comment       0x00000000       0x2b c:/nxp/lpcxpresso_4.1.5_219/lpcxpresso/tools/bin/../lib/gcc/arm-none-eabi/4.5.1/../../../../arm-none-eabi/lib/thumb2\libcr_c.a(_fflush.o)
 .comment       0x00000000       0x2b c:/nxp/lpcxpresso_4.1.5_219/lpcxpresso/tools/bin/../lib/gcc/arm-none-eabi/4.5.1/../../../../arm-none-eabi/lib/thumb2\libcr_c.a(_writebuf.o)
 .comment       0x00000000       0x2b c:/nxp/lpcxpresso_4.1.5_219/lpcxpresso/tools/bin/../lib/gcc/arm-none-eabi/4.5.1/../../../../arm-none-eabi/lib/thumb2\libcr_c.a(alloc.o)
 .comment       0x00000000       0x2b c:/nxp/lpcxpresso_4.1.5_219/lpcxpresso/tools/bin/../lib/gcc/arm-none-eabi/4.5.1/../../../../arm-none-eabi/lib/thumb2\libcr_c.a(fclose.o)
 .comment       0x00000000       0x2b c:/nxp/lpcxpresso_4.1.5_219/lpcxpresso/tools/bin/../lib/gcc/arm-none-eabi/4.5.1/../../../../arm-none-eabi/lib/thumb2\libcr_c.a(fflush.o)
 .comment       0x00000000       0x2b c:/nxp/lpcxpresso_4.1.5_219/lpcxpresso/tools/bin/../lib/gcc/arm-none-eabi/4.5.1/../../../../arm-none-eabi/lib/thumb2\libcr_c.a(fseek.o)
 .comment       0x00000000       0x2b c:/nxp/lpcxpresso_4.1.5_219/lpcxpresso/tools/bin/../lib/gcc/arm-none-eabi/4.5.1/../../../../arm-none-eabi/lib/thumb2\libcr_c.a(ftell.o)
 .comment       0x00000000       0x2b c:/nxp/lpcxpresso_4.1.5_219/lpcxpresso/tools/bin/../lib/gcc/arm-none-eabi/4.5.1/../../../../arm-none-eabi/lib/thumb2\libcr_c.a(remove.o)
 .comment       0x00000000       0x2b c:/nxp/lpcxpresso_4.1.5_219/lpcxpresso/tools/bin/../lib/gcc/arm-none-eabi/4.5.1/../../../../arm-none-eabi/lib/thumb2\libcr_c.a(strlen.o)
 .comment       0x00000000       0x2b c:/nxp/lpcxpresso_4.1.5_219/lpcxpresso/tools/bin/../lib/gcc/arm-none-eabi/4.5.1/../../../../arm-none-eabi/lib/thumb2\libcr_c.a(__init_alloc.o)
 .comment       0x00000000       0x2b c:/nxp/lpcxpresso_4.1.5_219/lpcxpresso/tools/bin/../lib/gcc/arm-none-eabi/4.5.1/../../../../arm-none-eabi/lib/thumb2\libcr_c.a(_do_fflush.o)
 .comment       0x00000000       0x2b c:/nxp/lpcxpresso_4.1.5_219/lpcxpresso/tools/bin/../lib/gcc/arm-none-eabi/4.5.1/../../../../arm-none-eabi/lib/thumb2\libcr_c.a(errno.o)
 .comment       0x00000000       0x2b c:/nxp/lpcxpresso_4.1.5_219/lpcxpresso/tools/bin/../lib/gcc/arm-none-eabi/4.5.1/thumb2\libcr_eabihelpers.a(float.o)
 .comment       0x00000000       0x2b c:/nxp/lpcxpresso_4.1.5_219/lpcxpresso/tools/bin/../lib/gcc/arm-none-eabi/4.5.1/../../../../arm-none-eabi/lib/thumb2\libcr_semihost.a(_cr_sbrk.o)
 .comment       0x00000000       0x2b c:/nxp/lpcxpresso_4.1.5_219/lpcxpresso/tools/bin/../lib/gcc/arm-none-eabi/4.5.1/../../../../arm-none-eabi/lib/thumb2\libcr_semihost.a(_cr_check_heap.o)

.ARM.attributes
                0x00000000       0x2f
 .ARM.attributes
                0x00000000       0x31 ./adc.o
 .ARM.attributes
                0x00000031       0x31 ./circ_buffer.o
 .ARM.attributes
                0x00000062       0x31 ./cr_startup_lpc17.o
 .ARM.attributes
                0x00000093       0x31 ./eint.o
 .ARM.attributes
                0x000000c4       0x31 ./lpc17xx_clkpwr.o
 .ARM.attributes
                0x000000f5       0x31 ./lpc17xx_libcfg_default.o
 .ARM.attributes
                0x00000126       0x31 ./lpc17xx_ssp.o
 .ARM.attributes
                0x00000157       0x31 ./main.o
 .ARM.attributes
                0x00000188       0x31 ./ssp.o
 .ARM.attributes
                0x000001b9       0x31 C:\Users\alex1104\Documents\LPCXpresso_4.1.5_219\workspace\CMSISv1p30_LPC17xx\Debug\libCMSISv1p30_LPC17xx.a(system_LPC17xx.o)
 .ARM.attributes
                0x000001ea       0x31 C:\Users\alex1104\Documents\LPCXpresso_4.1.5_219\workspace\FreeRTOS_Library\Debug\libFreeRTOS_Library.a(queue.o)
 .ARM.attributes
                0x0000021b       0x31 C:\Users\alex1104\Documents\LPCXpresso_4.1.5_219\workspace\FreeRTOS_Library\Debug\libFreeRTOS_Library.a(tasks.o)
 .ARM.attributes
                0x0000024c       0x31 C:\Users\alex1104\Documents\LPCXpresso_4.1.5_219\workspace\FreeRTOS_Library\Debug\libFreeRTOS_Library.a(heap_2.o)
 .ARM.attributes
                0x0000027d       0x31 C:\Users\alex1104\Documents\LPCXpresso_4.1.5_219\workspace\FreeRTOS_Library\Debug\libFreeRTOS_Library.a(port.o)
 .ARM.attributes
                0x000002ae       0x31 C:\Users\alex1104\Documents\LPCXpresso_4.1.5_219\workspace\FreeRTOS_Library\Debug\libFreeRTOS_Library.a(list.o)
 .ARM.attributes
                0x000002df       0x31 c:/nxp/lpcxpresso_4.1.5_219/lpcxpresso/tools/bin/../lib/gcc/arm-none-eabi/4.5.1/../../../../arm-none-eabi/lib/thumb2\libcr_semihost.a(_cr__main.o)
 .ARM.attributes
                0x00000310       0x31 c:/nxp/lpcxpresso_4.1.5_219/lpcxpresso/tools/bin/../lib/gcc/arm-none-eabi/4.5.1/../../../../arm-none-eabi/lib/thumb2\libcr_c.a(initio.o)
 .ARM.attributes
                0x00000341       0x31 c:/nxp/lpcxpresso_4.1.5_219/lpcxpresso/tools/bin/../lib/gcc/arm-none-eabi/4.5.1/../../../../arm-none-eabi/lib/thumb2\libcr_c.a(memcmp.o)
 .ARM.attributes
                0x00000372       0x31 c:/nxp/lpcxpresso_4.1.5_219/lpcxpresso/tools/bin/../lib/gcc/arm-none-eabi/4.5.1/../../../../arm-none-eabi/lib/thumb2\libcr_c.a(setvbuf.o)
 .ARM.attributes
                0x000003a3       0x31 c:/nxp/lpcxpresso_4.1.5_219/lpcxpresso/tools/bin/../lib/gcc/arm-none-eabi/4.5.1/../../../../arm-none-eabi/lib/thumb2\libcr_c.a(stdio.o)
 .ARM.attributes
                0x000003d4       0x31 c:/nxp/lpcxpresso_4.1.5_219/lpcxpresso/tools/bin/../lib/gcc/arm-none-eabi/4.5.1/../../../../arm-none-eabi/lib/thumb2\libcr_c.a(strncpy.o)
 .ARM.attributes
                0x00000405       0x31 c:/nxp/lpcxpresso_4.1.5_219/lpcxpresso/tools/bin/../lib/gcc/arm-none-eabi/4.5.1/../../../../arm-none-eabi/lib/thumb2\libcr_c.a(memcpy.o)
 .ARM.attributes
                0x00000436       0x31 c:/nxp/lpcxpresso_4.1.5_219/lpcxpresso/tools/bin/../lib/gcc/arm-none-eabi/4.5.1/../../../../arm-none-eabi/lib/thumb2\libcr_c.a(memset.o)
 .ARM.attributes
                0x00000467       0x31 c:/nxp/lpcxpresso_4.1.5_219/lpcxpresso/tools/bin/../lib/gcc/arm-none-eabi/4.5.1/../../../../arm-none-eabi/lib/thumb2\libcr_c.a(__fillbuf.o)
 .ARM.attributes
                0x00000498       0x31 c:/nxp/lpcxpresso_4.1.5_219/lpcxpresso/tools/bin/../lib/gcc/arm-none-eabi/4.5.1/../../../../arm-none-eabi/lib/thumb2\libcr_c.a(_deferredlazyseek.o)
 .ARM.attributes
                0x000004c9       0x31 c:/nxp/lpcxpresso_4.1.5_219/lpcxpresso/tools/bin/../lib/gcc/arm-none-eabi/4.5.1/../../../../arm-none-eabi/lib/thumb2\libcr_c.a(_fdopen.o)
 .ARM.attributes
                0x000004fa       0x31 c:/nxp/lpcxpresso_4.1.5_219/lpcxpresso/tools/bin/../lib/gcc/arm-none-eabi/4.5.1/../../../../arm-none-eabi/lib/thumb2\libcr_c.a(_fflush.o)
 .ARM.attributes
                0x0000052b       0x31 c:/nxp/lpcxpresso_4.1.5_219/lpcxpresso/tools/bin/../lib/gcc/arm-none-eabi/4.5.1/../../../../arm-none-eabi/lib/thumb2\libcr_c.a(_writebuf.o)
 .ARM.attributes
                0x0000055c       0x31 c:/nxp/lpcxpresso_4.1.5_219/lpcxpresso/tools/bin/../lib/gcc/arm-none-eabi/4.5.1/../../../../arm-none-eabi/lib/thumb2\libcr_c.a(alloc.o)
 .ARM.attributes
                0x0000058d       0x31 c:/nxp/lpcxpresso_4.1.5_219/lpcxpresso/tools/bin/../lib/gcc/arm-none-eabi/4.5.1/../../../../arm-none-eabi/lib/thumb2\libcr_c.a(fclose.o)
 .ARM.attributes
                0x000005be       0x31 c:/nxp/lpcxpresso_4.1.5_219/lpcxpresso/tools/bin/../lib/gcc/arm-none-eabi/4.5.1/../../../../arm-none-eabi/lib/thumb2\libcr_c.a(fflush.o)
 .ARM.attributes
                0x000005ef       0x31 c:/nxp/lpcxpresso_4.1.5_219/lpcxpresso/tools/bin/../lib/gcc/arm-none-eabi/4.5.1/../../../../arm-none-eabi/lib/thumb2\libcr_c.a(fseek.o)
 .ARM.attributes
                0x00000620       0x31 c:/nxp/lpcxpresso_4.1.5_219/lpcxpresso/tools/bin/../lib/gcc/arm-none-eabi/4.5.1/../../../../arm-none-eabi/lib/thumb2\libcr_c.a(ftell.o)
 .ARM.attributes
                0x00000651       0x31 c:/nxp/lpcxpresso_4.1.5_219/lpcxpresso/tools/bin/../lib/gcc/arm-none-eabi/4.5.1/../../../../arm-none-eabi/lib/thumb2\libcr_c.a(remove.o)
 .ARM.attributes
                0x00000682       0x31 c:/nxp/lpcxpresso_4.1.5_219/lpcxpresso/tools/bin/../lib/gcc/arm-none-eabi/4.5.1/../../../../arm-none-eabi/lib/thumb2\libcr_c.a(strlen.o)
 .ARM.attributes
                0x000006b3       0x31 c:/nxp/lpcxpresso_4.1.5_219/lpcxpresso/tools/bin/../lib/gcc/arm-none-eabi/4.5.1/../../../../arm-none-eabi/lib/thumb2\libcr_c.a(__init_alloc.o)
 .ARM.attributes
                0x000006e4       0x31 c:/nxp/lpcxpresso_4.1.5_219/lpcxpresso/tools/bin/../lib/gcc/arm-none-eabi/4.5.1/../../../../arm-none-eabi/lib/thumb2\libcr_c.a(_do_fflush.o)
 .ARM.attributes
                0x00000715       0x31 c:/nxp/lpcxpresso_4.1.5_219/lpcxpresso/tools/bin/../lib/gcc/arm-none-eabi/4.5.1/../../../../arm-none-eabi/lib/thumb2\libcr_c.a(errno.o)
 .ARM.attributes
                0x00000746       0x31 c:/nxp/lpcxpresso_4.1.5_219/lpcxpresso/tools/bin/../lib/gcc/arm-none-eabi/4.5.1/thumb2\libcr_eabihelpers.a(float.o)
 .ARM.attributes
                0x00000777       0x21 c:/nxp/lpcxpresso_4.1.5_219/lpcxpresso/tools/bin/../lib/gcc/arm-none-eabi/4.5.1/thumb2\libcr_eabihelpers.a(memcpy.o)
 .ARM.attributes
                0x00000798       0x21 c:/nxp/lpcxpresso_4.1.5_219/lpcxpresso/tools/bin/../lib/gcc/arm-none-eabi/4.5.1/../../../../arm-none-eabi/lib/thumb2\libcr_semihost.a(__sys_appexit.o)
 .ARM.attributes
                0x000007b9       0x21 c:/nxp/lpcxpresso_4.1.5_219/lpcxpresso/tools/bin/../lib/gcc/arm-none-eabi/4.5.1/../../../../arm-none-eabi/lib/thumb2\libcr_semihost.a(__sys_close.o)
 .ARM.attributes
                0x000007da       0x21 c:/nxp/lpcxpresso_4.1.5_219/lpcxpresso/tools/bin/../lib/gcc/arm-none-eabi/4.5.1/../../../../arm-none-eabi/lib/thumb2\libcr_semihost.a(__sys_flen.o)
 .ARM.attributes
                0x000007fb       0x21 c:/nxp/lpcxpresso_4.1.5_219/lpcxpresso/tools/bin/../lib/gcc/arm-none-eabi/4.5.1/../../../../arm-none-eabi/lib/thumb2\libcr_semihost.a(__sys_istty.o)
 .ARM.attributes
                0x0000081c       0x21 c:/nxp/lpcxpresso_4.1.5_219/lpcxpresso/tools/bin/../lib/gcc/arm-none-eabi/4.5.1/../../../../arm-none-eabi/lib/thumb2\libcr_semihost.a(__sys_read.o)
 .ARM.attributes
                0x0000083d       0x21 c:/nxp/lpcxpresso_4.1.5_219/lpcxpresso/tools/bin/../lib/gcc/arm-none-eabi/4.5.1/../../../../arm-none-eabi/lib/thumb2\libcr_semihost.a(__sys_readc.o)
 .ARM.attributes
                0x0000085e       0x21 c:/nxp/lpcxpresso_4.1.5_219/lpcxpresso/tools/bin/../lib/gcc/arm-none-eabi/4.5.1/../../../../arm-none-eabi/lib/thumb2\libcr_semihost.a(__sys_remove.o)
 .ARM.attributes
                0x0000087f       0x21 c:/nxp/lpcxpresso_4.1.5_219/lpcxpresso/tools/bin/../lib/gcc/arm-none-eabi/4.5.1/../../../../arm-none-eabi/lib/thumb2\libcr_semihost.a(__sys_rename.o)
 .ARM.attributes
                0x000008a0       0x21 c:/nxp/lpcxpresso_4.1.5_219/lpcxpresso/tools/bin/../lib/gcc/arm-none-eabi/4.5.1/../../../../arm-none-eabi/lib/thumb2\libcr_semihost.a(__sys_seek.o)
 .ARM.attributes
                0x000008c1       0x21 c:/nxp/lpcxpresso_4.1.5_219/lpcxpresso/tools/bin/../lib/gcc/arm-none-eabi/4.5.1/../../../../arm-none-eabi/lib/thumb2\libcr_semihost.a(__sys_tmpnam.o)
 .ARM.attributes
                0x000008e2       0x21 c:/nxp/lpcxpresso_4.1.5_219/lpcxpresso/tools/bin/../lib/gcc/arm-none-eabi/4.5.1/../../../../arm-none-eabi/lib/thumb2\libcr_semihost.a(__sys_write.o)
 .ARM.attributes
                0x00000903       0x31 c:/nxp/lpcxpresso_4.1.5_219/lpcxpresso/tools/bin/../lib/gcc/arm-none-eabi/4.5.1/../../../../arm-none-eabi/lib/thumb2\libcr_semihost.a(_cr_sbrk.o)
 .ARM.attributes
                0x00000934       0x31 c:/nxp/lpcxpresso_4.1.5_219/lpcxpresso/tools/bin/../lib/gcc/arm-none-eabi/4.5.1/../../../../arm-none-eabi/lib/thumb2\libcr_semihost.a(_cr_check_heap.o)

.debug_frame    0x00000000      0xdf0
 .debug_frame   0x00000000       0x84 ./adc.o
 .debug_frame   0x00000084       0x80 ./circ_buffer.o
 .debug_frame   0x00000104      0x120 ./cr_startup_lpc17.o
 .debug_frame   0x00000224       0x84 ./eint.o
 .debug_frame   0x000002a8      0x10c ./lpc17xx_clkpwr.o
 .debug_frame   0x000003b4       0x2c ./lpc17xx_libcfg_default.o
 .debug_frame   0x000003e0      0x24c ./lpc17xx_ssp.o
 .debug_frame   0x0000062c      0x14c ./main.o
 .debug_frame   0x00000778       0x30 ./ssp.o
 .debug_frame   0x000007a8       0x40 C:\Users\alex1104\Documents\LPCXpresso_4.1.5_219\workspace\CMSISv1p30_LPC17xx\Debug\libCMSISv1p30_LPC17xx.a(system_LPC17xx.o)
 .debug_frame   0x000007e8      0x19c C:\Users\alex1104\Documents\LPCXpresso_4.1.5_219\workspace\FreeRTOS_Library\Debug\libFreeRTOS_Library.a(queue.o)
 .debug_frame   0x00000984      0x2d4 C:\Users\alex1104\Documents\LPCXpresso_4.1.5_219\workspace\FreeRTOS_Library\Debug\libFreeRTOS_Library.a(tasks.o)
 .debug_frame   0x00000c58       0x68 C:\Users\alex1104\Documents\LPCXpresso_4.1.5_219\workspace\FreeRTOS_Library\Debug\libFreeRTOS_Library.a(heap_2.o)
 .debug_frame   0x00000cc0       0xc8 C:\Users\alex1104\Documents\LPCXpresso_4.1.5_219\workspace\FreeRTOS_Library\Debug\libFreeRTOS_Library.a(port.o)
 .debug_frame   0x00000d88       0x68 C:\Users\alex1104\Documents\LPCXpresso_4.1.5_219\workspace\FreeRTOS_Library\Debug\libFreeRTOS_Library.a(list.o)
